:100000000C9464000C948C000C948C000C946D0384
:100010000C946D030C946D030C948C000C94B90239
:100020000C948C000C948C000C948C000C94E703C2
:100030000C948C000C948C000C948C000C948C0010
:100040000C94A3050C948C000C943B030C941503A6
:100050000C948C000C948C000C948C000C948C00F0
:100060000C948C000C948C000200000000240027EB
:10007000002A00000000080002010000030407003D
:1000800000000000000000000000002300260029FE
:100090000000000000250028002B000404040404D4
:1000A0000404040202020202020303030303030125
:1000B00002040810204080010204081020010204FC
:1000C000081020003D0E210E11241FBECFEFD8E0F6
:1000D000DEBFCDBF11E0A0E0B1E0ECE9F2E202C08A
:1000E00005900D92A034B107D9F723E0A0E4B1E068
:1000F00001C01D92A432B207E1F710E0C3E6D0E0E0
:1001000004C02197FE010E943611C236D107C9F7FB
:100110000E9432060C9441110C940000CF92DF92A1
:10012000EF92FF920F931F93CF93DF936C017A01AD
:100130008B01C0E0D0E0CE15DF0581F0D8016D91D4
:100140008D01D601ED91FC910190F081E02DC60169
:100150000995892B11F02196EECF7E01C701DF9121
:10016000CF911F910F91FF90EF90DF90CF90089566
:10017000FC01538D448D252F30E0842F90E0821BAD
:10018000930B541710F0CF96089501970895FC0132
:10019000918D828D981761F0828DDF01A80FB11DBE
:1001A0005D968C91928D9F5F9F73928F90E00895E2
:1001B0008FEF9FEF0895FC01918D828D981731F09C
:1001C000828DE80FF11D858D90E008958FEF9FEFF0
:1001D0000895FC01918D228D892F90E0805C9F4FC6
:1001E000821B91098F739927089586E292E00E94FD
:1001F000E90021E0892B09F420E0822F0895FC0119
:10020000848DDF01A80FB11DA35ABF4F2C91848D9F
:1002100090E001968F739927848FA689B7892C93D4
:10022000A089B1898C91837080648C93938D848D27
:10023000981306C00288F389E02D80818F7D80832A
:100240000895EF92FF920F931F93CF93DF93EC01EA
:1002500081E0888F9B8D8C8D981305C0E889F98982
:10026000808185FD26C0F62E0B8D10E00F5F1F4F9D
:100270000F731127E02E8C8DE8120CC00FB607FC0F
:10028000FACFE889F989808185FFF5CFCE010E94F8
:10029000FF00F1CF8B8DFE01E80FF11DE35AFF4FF8
:1002A000F0829FB7F8940B8FEA89FB898081806286
:1002B0000AC09FB7F894EE89FF896083E889F989BD
:1002C00080818370806480839FBF81E090E0DF91B4
:1002D000CF911F910F91FF90EF900895CF93DF93EF
:1002E000EC01888D8823C9F0EA89FB89808185FD2E
:1002F00005C0A889B9898C9186FD0FC00FB607FC8F
:10030000F5CF808185FFF2CFA889B9898C9185FFCF
:10031000EDCFCE010E94FF00E7CFDF91CF9108958E
:1003200080E090E0892B29F00E94F50081110C9467
:10033000000008952091870130918801281739071E
:1003400071F49091850180918601981741F0E091B8
:100350008501F0E0EB5BFE4F808190E008958FEF28
:100360009FEF089508951F93CF93DF93DC015C9670
:100370008D919C915D97009739F421E030E01396C0
:100380003C932E9312973BC05196ED91FC9152975E
:1003900050962C915097322F30951FB75E964C9106
:1003A0005E97742F727041FD6095F89440817723B9
:1003B00011F0422B01C043234083EC012197F1F758
:1003C00048E0508160FF02C0522B01C0532350838C
:1003D000EC012197F1F76695415099F780817723D9
:1003E00019F08323808302C0282B20831FBF5C96D3
:1003F0008D919C915D970197F1F781E090E0DF91FD
:10040000CF911F910895209187013091880128177D
:10041000390771F4809186012091850190E0805C1C
:100420009F4F821B910960E470E00E9407110895BC
:1004300080E090E00895209187013091880128178D
:100440003907B9F49091850180918601981789F058
:10045000E0918501F0E0EB5BFE4F8081209185010A
:1004600030E02F5F3F4F2F7333272093850190E0BB
:1004700008958FEF9FEF0895089580E090E008952C
:10048000682F86E292E00C942101EF92FF920F9385
:100490001F93CF93DF93162FE72EF82E092F82E0BC
:1004A0000E944002C0E4D1E0812F9E2DAF2DB02FDD
:1004B00088839983AA83BB830E94400289810E941A
:1004C00040028A810E9440028B81DF91CF911F916F
:1004D0000F91FF90EF900C9440028FEF0E9440022A
:1004E00085E50C9440028FEF0E94400285E50E9452
:1004F00040020C94CD0490910001891324C0E8E6D9
:10050000F0E0E4919FEF90930001E130B9F098F0B2
:10051000E230C9F4909170009D7F9093700091E05B
:100520009093B0009091B100987F94609093B10047
:100530001092B30008C010926E0005C090916F0039
:100540009D7F90936F0060E00C94FE04FC01EE0F21
:10055000FF1FEA5FFD4F20813181232B39F421E019
:1005600030E03183208361E00C942D0508950E94D2
:100570003C111F920F920FB60F9211242F933F93AD
:100580004F935F936F937F938F939F93AF93BF939B
:10059000EF93FF938091900190919101A09192012E
:1005A000B0919301892B8A2B8B2B51F190918B0168
:1005B000E0918C01F0918D01808189278083809169
:1005C000900190919101A0919201B0919301181620
:1005D00019061A061B06C4F48091900190919101AE
:1005E000A0919201B09193010197A109B109809363
:1005F000900190939101A0939201B093930104C054
:10060000809100010E947B02FF91EF91BF91AF9119
:100610009F918F917F916F915F914F913F912F911A
:100620000F900FBE0F901F9018951F920F920FB64C
:100630000F9211242F933F934F935F936F937F9368
:100640008F939F93AF93BF93EF93FF9386E292E0D4
:100650000E94FF00FF91EF91BF91AF919F918F9109
:100660007F916F915F914F913F912F910F900FBEAE
:100670000F901F9018951F920F920FB60F92112492
:100680002F938F939F93EF93FF93E0913602F09116
:1006900037028081E0913C02F0913D0282FD12C060
:1006A000908180913F028F5F8F732091400282176B
:1006B00051F0E0913F02F0E0EA5DFD4F958F8093AD
:1006C0003F0201C08081FF91EF919F918F912F9107
:1006D0000F900FBE0F901F9018951F920F920FB69C
:1006E0000F9211242F933F934F935F936F937F93B8
:1006F0008F939F93AF93BF93EF93FF93E091870105
:10070000F0918801309709F451C0968DA685B78580
:10071000858591FF04C09C91892329F447C09C9151
:10072000892309F043C0A389B4899C918589809568
:1007300089238C93868997890197F1F7608D718D54
:10074000A685B785558538E020E0CB010197F1F704
:10075000822F90E095958795282F4C91452309F09D
:100760002068315091F7868D81FD2095809186011A
:1007700090E001968F73992730918501381749F0E1
:10078000A0918601B0E0AB5BBE4F2C9380938601B5
:1007900003C0868D8160868F828D938D0197F1F7DE
:1007A000A389B4899C918589892B8C93FF91EF91C2
:1007B000BF91AF919F918F917F916F915F914F9179
:1007C0003F912F910F900FBE0F901F9018951F9281
:1007D0000F920FB60F9211242F933F934F935F9375
:1007E0006F937F938F939F93AF93BF93EF93FF93F9
:1007F0008091440187FF05C010928500109284000B
:100800001BC020914401022E000C330B8091E702A3
:1008100090E02817390784F480914401082E000CD9
:10082000990BFC01EE0FFF1F8E0F9F1FFC01ED5374
:10083000FD4F808186FD15C0809144018F5F8093BC
:10084000440120914401022E000C330B8091E702F9
:1008500090E028173907C4F4809144018C3064F18A
:1008600013C080914401082E000C990BFC01EE0F7F
:10087000FF1F8E0F9F1FFC01ED53FD4F808160E035
:100880008F730E94FE04D8CF8091840090918500E0
:10089000049680349C4918F480E49CE905C080915A
:1008A000840090918500049690938900809388003D
:1008B0008FEF809344013BC02091840030918500EC
:1008C00080914401082E000C990BFC01EE0FFF1FD4
:1008D0008E0F9F1FFC01ED53FD4F81819281820F8E
:1008E000931F909389008093880080914401082E83
:1008F000000C990BFC01EE0FFF1F8E0F9F1FFC01D8
:10090000ED53FD4F808186FF12C080914401082E77
:10091000000C990BFC01EE0FFF1F8E0F9F1FFC01B7
:10092000ED53FD4F808161E08F730E94FE04FF91C3
:10093000EF91BF91AF919F918F917F916F915F9157
:100940004F913F912F910F900FBE0F901F901895D0
:100950003FB7F8948091200390912103A091220346
:10096000B091230326B5A89B05C02F3F19F001962F
:10097000A11DB11D3FBFBA2FA92F982F8827820F25
:10098000911DA11DB11DBC01CD0142E0660F771F75
:10099000881F991F4A95D1F7089542E050E06DE312
:1009A00071E086E292E00C948E00833081F028F4AE
:1009B000813099F08230A1F008958730A9F0883015
:1009C000B9F08430D1F4809180008F7D03C0809194
:1009D00080008F7780938000089584B58F7702C060
:1009E00084B58F7D84BD08958091B0008F7703C05A
:1009F0008091B0008F7D8093B00008951F93CF93B6
:100A0000DF93282F30E0F901ED58FF4F8491F90171
:100A1000E155FF4FD491F901E556FF4FC491CC2326
:100A2000C1F0162F81110E94D504EC2FF0E0EE0FDB
:100A3000FF1FEF56FF4FA591B4919FB7F894111186
:100A400004C08C91D095D82302C0EC91DE2BDC93AE
:100A50009FBFDF91CF911F910895CF93DF9390E0D7
:100A6000FC01E155FF4F2491FC01E556FF4F8491B5
:100A7000882361F190E0880F991FFC01E759FF4F2F
:100A8000C591D491FC01EF56FF4FA591B49161112E
:100A900009C09FB7F8948881209582238883EC91C0
:100AA0002E230BC0623061F49FB7F8948881322FF7
:100AB000309583238883EC912E2B2C939FBF06C007
:100AC0008FB7F894E8812E2B28838FBFDF91CF91C9
:100AD00008958F929F92AF92BF92CF92DF92EF9242
:100AE000FF926B017C010E94A8044B015C01C114C0
:100AF000D104E104F104F1F00E94A804DC01CB016F
:100B000088199909AA09BB09883E9340A105B10536
:100B100070F321E0C21AD108E108F10888EE880ECE
:100B200083E0981EA11CB11CC114D104E104F1049E
:100B300019F7DDCFFF90EF90DF90CF90BF90AF908F
:100B40009F908F9008951F920F920FB60F921124CD
:100B50002F933F938F939F93AF93BF9380912202E4
:100B600090912302A0912402B091250230911F039D
:100B700023E0230F2D3720F40196A11DB11D05C0E0
:100B800026E8230F0296A11DB11D20931F03809319
:100B9000220290932302A0932402B0932502809115
:100BA000200390912103A0912203B0912303019689
:100BB000A11DB11D8093200390932103A0932203D4
:100BC000B0932303BF91AF919F918F913F912F914C
:100BD0000F900FBE0F901F901895CF92DF92EF925B
:100BE000FF920F931F93E82FF92F05C001501109B1
:100BF0002109310961F1908196239417B9F305C059
:100C0000015011092109310911F1908196239413A2
:100C1000F7CFC12CD12CE12CF12C0AC08FEFC81AD0
:100C2000D80AE80AF80A0C151D052E053F0579F0CB
:100C300080818623841791F36C2D7D2D8E2D9F2D21
:100C40001F910F91FF90EF90DF90CF90089560E09B
:100C500070E080E090E01F910F91FF90EF90DF90A7
:100C6000CF900895CF93DF9300D000D0CDB7DEB7FB
:100C7000789484B5826084BD84B5816084BD85B577
:100C8000826085BD85B5816085BD80916E00816083
:100C900080936E0010928100809181008260809329
:100CA000810080918100816080938100809180002B
:100CB0008160809380008091B10084608093B10056
:100CC0008091B00081608093B00080917A00846050
:100CD00080937A0080917A00826080937A0080917C
:100CE0007A00816080937A0080917A008068809396
:100CF0007A001092C100E0913602F091370282E052
:100D00008083E0913602F09137021082E091320246
:100D1000F09133021082E0913402F091350280E1CB
:100D2000808310923E02E0913A02F0913B0286E00D
:100D30008083E0913802F091390280818061808364
:100D4000E0913802F0913902808188608083E091DF
:100D50003802F0913902808180688083E091380206
:100D6000F091390280818F7D80831092030310926D
:100D7000020310920103109200031092FF021092DE
:100D8000FE028FE190E0909305038093040390911D
:100D9000F402963108F058C021E030E03093FF02B1
:100DA0002093FE022DE130E03093010320930003F5
:100DB0002DE030E03093030320930203409168005C
:100DC000983058F031E09E3008F430E021E0822F76
:100DD00001C0880F3A95EAF701C084E0842B809324
:100DE0006800983038F09E3040F0963148F020E0AE
:100DF00030E008C02DE630E005C02BE630E002C050
:100E00002CE630E03093FC022093FB02983030F463
:100E100081E001C0880F9A95EAF70EC0292F30E0D3
:100E20009E3018F42850310902C02E50310981E05B
:100E300001C0880F2A95EAF78093FD028091040390
:100E4000909105030197F1F78091020390910303BC
:100E5000892B49F1E0918701F091880122E0E83E79
:100E6000F20709F1309739F0A389B4899C918589FB
:100E7000809589238C93809106038E7F809306034F
:100E8000109286011092850188EE92E0909388017D
:100E900080938701E091FB02F091FC0290818091A8
:100EA000FD02892B8083198261E089810E942D05D2
:100EB00060E089810E94FE0439813F5F39833E30C2
:100EC00099F768EC70E080E090E00E9469052224C8
:100ED0002394312C86E292E00E94E900892B09F4E8
:100EE000D8C386E292E00E94E9001816190694F72A
:100EF00086E292E00E94C7009091E301853561F49B
:100F000091110AC08091E2018F3FE1F481E080936A
:100F1000E1018093E30116C08093E201992391F0EF
:100F2000E091E101E23019F48093E00107C0E33081
:100F300028F09091E00191509093E001F0E0E455A9
:100F4000FE4F80838091E1018F5F843318F480939A
:100F5000E10104C01092E1011092E3018091E301EC
:100F6000882309F4B7CF8091E0018111B3CF80913C
:100F7000E101843008F4AECF1092E3011091B0018A
:100F80008091B101D090B201ED2CF12C123009F416
:100F900081C0133009F478C3113009F077C387306A
:100FA00009F048C0809105024091B301498397013F
:100FB000220F331F811109C010930502F092040122
:100FC000E0920301842F90E016C06981862F90E0A3
:100FD0004091030150910401E416F50641F440915B
:100FE0000101509102018417950709F443C5F0925D
:100FF0000401E09203019093020180930101F90141
:10100000EA5FFD4F31822082880F991FFC01EA5F61
:10101000FD4F3182208261E08D2D0E942D0560E020
:1010200089810E942D0562E370E080E090E00E94DB
:10103000690520C5893009F01DC590910402809191
:10104000B301911108C010930402F0920601E092DE
:10105000050190E014C090E0209105013091060157
:10106000E216F30641F4209107013091080182173E
:10107000930709F40BC3F0920601E09205019093E7
:1010800008018093070162E370E080E090E00E9435
:101090006905FCC22091030130910401E216F306B8
:1010A00039F02091010130910201E216F30651F46A
:1010B000109205021092E4011092E5011092E601EF
:1010C0001092E7012091050130910601E216F30626
:1010D00039F02091070130910801E216F30651F42E
:1010E000109204021092E8011092E9011092EA01B4
:1010F0001092EB01843009F426C22CF48130A9F05F
:101100008330C9F0C1C2853009F477C0883009F056
:10111000BBC28FB7F8944091220250912302609194
:101120002402709125028FBFAFC2C7010E94A602A0
:101130006091B3015CC0C7010E94A6021091B30187
:10114000812F90E09A83898361E08D2D0E942D0587
:10115000112309F44BC01F3F09F44DC0F701ED58AE
:10116000FF4FE491E33009F148F4E130C9F0E23097
:10117000C1F584B5806284BD18BD86C2E73009F12F
:10118000E83039F1E43069F5809180008062809325
:10119000800029813A8130938B0020938A0074C2A9
:1011A00084B5806884BD17BD6FC28091800080685F
:1011B00080938000E981FA81F0938900E0938800B0
:1011C00063C28091B00080688093B0001093B30038
:1011D0005BC28091B00080628093B0001093B40035
:1011E00053C269817A81603871052CF460E08D2DDD
:1011F0000E94FE0449C261E0FACFC7010E94A60224
:101200008091B301809389018091B40180938A0118
:101210008091890190918A019C838B838091B50193
:10122000809389018091B60180938A01E0918901C0
:10123000F0918A01FA83E9831E161F060CF07FC124
:1012400080910001D81621F08F3F09F01DC204C023
:10125000E8E6F0E0149174C0D0920001E8E6F0E016
:1012600084918F3F09F410C2813009F443C038F1F2
:10127000823009F064C01092B0001092B1008091E9
:10128000B00082608093B0008091B1008160809353
:10129000B100F701E556FF4FE491F0E0EE0FFF1FBC
:1012A000EF56FF4F8591949190938D0180938C011F
:1012B000F701E155FF4FE491E0938B01BDC414BCED
:1012C00015BC84B5826084BD85B5816085BDF7019C
:1012D000E556FF4FE491F0E0EE0FFF1FEF56FF4F92
:1012E00085919491F701E155FF4FE491E0938F01CF
:1012F00010E0A2C4109280001092810080918100C1
:10130000886080938100809181008160809381005A
:10131000F701E556FF4FE491F0E0EE0FFF1FEF56A7
:10132000FF4F85919491F701E155FF4FE491E093D0
:101330008E0161E08D2D0E942D0511E087C0182FD0
:1013400017FDA2C161E08D2D0E942D05812F8D7F9B
:1013500009F07CC02B813C814901A12CB12C60E0BB
:1013600072E18AE790E0A50194010E9445102901ED
:101370003A0169017A0131E0C31AD108E108F108A4
:101380004FEFC416D104E104F10409F008F44CC095
:1013900060E472E48FE090E0A50194010E944510A2
:1013A00069017A0161E0C61AD108E108F10812303A
:1013B00009F57FEFC716D104E104F10409F008F440
:1013C00004C460E970ED83E090E0A50194010E94FF
:1013D000451069017A0181E0C81AD108E108F108D5
:1013E0009FEFC916D104E104F10411F008F07CC3A9
:1013F00083E025C0EFEFCE16D104E104F104B1F093
:10140000A8F068E478EE81E090E0A50194010E94E4
:10141000451069017A01F1E0CF1AD108E108F1081D
:10142000112309F4D4C39FC381E001C082E01111EC
:1014300006C095B5987F892B85BD3CC085E090910D
:10144000B100987F892B8093B10034C0EB81FC817F
:101450004F01A12CB12C60E072E18AE790E0A50178
:1014600094010E94451069017A01F1E0CF1AD10878
:10147000E108F108C114D10421E0E206F10488F08A
:1014800068E478EE81E090E0A50194010E944510A7
:1014900069017A0161E0C61AD108E108F10883E028
:1014A00001C081E0113031F490918100987F892B47
:1014B000809381002B813C81220F331FA981BA8147
:1014C0000E941B1128EE33E040E050E00E946410BF
:1014D000113099F0123019F11111D6C0C7BC209308
:1014E00098013093990140939A0150939B01809108
:1014F0006E00826080936E00C7C0D0928900C09257
:101500008800209394013093950140939601509365
:10151000970180916F00826080936F00B5C0C09288
:10152000B300209390013093910140939201509326
:10153000930180917000826080937000A5C08D2D12
:101540000E947B02A1C0C7010E94A6021091B301B4
:10155000153B08F099C0ECE9F1E080E090E02191C2
:101560003191E216F30681F0232B41F4FC01EE0FDA
:10157000FF1FE456FE4FF182E08206C001968830DC
:10158000910569F780E090E0FC01EE0FFF1F8E0FE0
:101590009F1FFC01E95FFC4F708179837C3008F06C
:1015A00073C061E08D2D0E942D059981892F90E0F7
:1015B0009A838983880F991FE981FA81E80FF91FBF
:1015C000ED53FD4F2D2D2F733081307CD32ED22A39
:1015D000D08220E030E0F901EE0FFF1FE20FF31F91
:1015E000ED53FD4F408146FD14C02F5F3F4F2C301F
:1015F000310589F71092800022E02093810010923B
:10160000850010928400B19A20916F00226020938F
:101610006F00E981FA818E0F9F1FFC01ED53FD4F92
:10162000808180648083A12FB0E0A53BB10514F0D8
:10163000A4EBB0E020E437E00E941B1124EB30E083
:1016400040E050E00E944510DA01C901805E9D4FE4
:10165000AF4FBF4F9C018136994014F020E639E02E
:1016600022503109220F331F4FB7F89489819A8194
:10167000880F991F69817A81680F791F6D537D4F9B
:10168000FB01328321834FBF0E9473021092E1015C
:1016900021CC6FE070E080E090E00E946905B6E048
:1016A000EB2EB2E0FB2E1A821982F7010191119103
:1016B0007F010115110509F03DC0B98060E08B2D57
:1016C0000E942D050E946D02E981FA81ED58FF4FBD
:1016D0008491E981FA81E155FF4FC490E981FA8153
:1016E000E556FF4FD490DD2099F081110E94D5047A
:1016F000ED2DF0E0EE0FFF1FE957FF4FA591B491DC
:10170000EC91CE2291E080E009F490E0092F182FAF
:10171000B801110F880B990B0E94280F0E944502F7
:101720008B2D0E94400281E00E9440020E94CD0465
:101730000E94730229813A812F5F3F4F3A832983A8
:101740002E30310509F0B1CF69E071E07A83698309
:1017500010E0E981FA8181919191FA83E983892BE3
:1017600039F50E946D02812F806480937C00809106
:101770007A00806480937A0080917A0086FDFCCFA5
:10178000609178008091790070E0782B072E000C32
:10179000880B990B0E94280F0E944502812F0E94FE
:1017A000400282E00E9440020E94CD040E94730227
:1017B0001F5F183071F680910502882309F480C0FC
:1017C000F0910301F98360E08F2F0E94FE0483E013
:1017D00090E00197F1F761E089810E94FE0483E2C5
:1017E00090E00197F1F760E089810E94FE0480910A
:1017F0000101909102019927FC01E155FF4F64918D
:10180000FC01E556FF4FE491F0E0EE0FFF1FE957B2
:10181000FF4F8591949100E315E720E030E0462FDB
:101820000E94ED05611571058105910549F0DC0106
:10183000CB010196A11DB11DBC01CD019F7003C05C
:1018400060E070E0CB010E94260F20E030E048EE1F
:1018500051E40E94951020E030E040E05FE30E94F8
:10186000870F6B017C0120E030E0A9010E94210F6D
:10187000811109C0C090E401D090E501E090E6013B
:10188000F090E70108C0C092E401D092E501E09237
:10189000E601F092E7010E946D02C701B6010E94C5
:1018A0004502809103010E944002809101010E9443
:1018B000400287E00E9440020E94CD040E94730211
:1018C00080910402882309F4CCC088EE92E00E9443
:1018D0001B028935910509F077C09093F30180933D
:1018E000F20188EE92E00E941B028935910509F011
:1018F0006BC09093F5018093F40182E090E09093A7
:10190000F1018093F0012091F0013091F1013A83CF
:1019100029832930310584F488EE92E00E941B026D
:10192000E981FA81EE0FFF1FEE50FE4F9183808315
:1019300089819A810196E3CF2091F6013091F701D8
:101940006091F8017091F9014091F2015091F30119
:101950008091F4019091F501840F951F820F931FE0
:10196000860F971F4091FA015091FB01840F951F3C
:101970004091FC015091FD01840F951F4091FE01A3
:101980005091FF01840F951F409100025091010278
:10199000840F951F99274091020250910302481726
:1019A000590791F4762F6627620F731F072E000CDC
:1019B000880B990B0E94280F6093EC017093ED0146
:1019C0008093EE019093EF01C090EC01D090ED0177
:1019D000E090EE01F090EF0120E030E0A901C701B6
:1019E000B6010E94210F811111C08091E8019091F0
:1019F000E901A091EA01B091EB018093EC01909391
:101A0000ED01A093EE01B093EF0108C0C092E80190
:101A1000D092E901E092EA01F092EB010E946D029E
:101A20006091EC017091ED018091EE019091EF01D8
:101A30000E94450241E050E06EE371E086E292E0F0
:101A40000E948E00809105010E9440028091070152
:101A50000E94400289E00E9440020E94CD040E9440
:101A600073026AE070E080E090E00E9469050E94E5
:101A700090012DCA2091030130910401C701880F04
:101A8000991FE216F30639F020910101309102010D
:101A9000E216F30659F4109205021092E401109236
:101AA000E5011092E6011092E70118C020910501AE
:101AB00030910601E216F30639F0209107013091CA
:101AC0000801E216F30651F4109204021092E801A4
:101AD0001092E9011092EA011092EB01FC01EA5F19
:101AE000FD4F11821082D2CD68E478EE81E090E063
:101AF000A50194010E94451069017A0161E0C61AAE
:101B0000D108E108F1087FEFC716D104E104F10420
:101B100041F138F164E274EF80E090E0A5019401B6
:101B20000E94451069017A0161E0C61AD108E108F6
:101B3000F1087FEFC716D104E104F10409F008F4BD
:101B40007DCC62E17AE780E090E0A50194010E94FB
:101B5000451069017A0181E0C81AD108E108F1084D
:101B600019C084E06CCCEFEFCE16D104E104F1048F
:101B700009F008F45FC062E17AE780E090E0A50137
:101B800094010E94451069017A0191E0C91AD108B7
:101B9000E108F1082FEFC216D104E104F10499F035
:101BA00090F0D301C2012AE0B595A7959795879546
:101BB0002A95D1F76C017D01F1E0CF1AD108E10837
:101BC000F10887E03CCC86E03ACC82E038CC8FEF5D
:101BD000C816D104E104F10459F150F162E17AE749
:101BE00080E090E0A50194010E94451069017A010E
:101BF00061E0C61AD108E108F1087FEFC716D104E9
:101C0000E104F10499F090F0D301C2013AE0B595F6
:101C1000A795979587953A95D1F76C017D01E1E0FD
:101C2000CE1AD108E108F10885E003CC84E001CCAC
:101C300083E0FFCB84E0FBCB61E08D2D0E942D057E
:101C400089CB8FE291E09093E9028093E802809142
:101C5000870190918801885E924071F4E091FB02C7
:101C6000F091FC0290818091FD0280958923808310
:101C7000109288011092870108950F931F93CF93BC
:101C8000DF93109229021092280288EE93E0A0E0E0
:101C9000B0E080932A0290932B02A0932C02B09381
:101CA0002D028DE191E0909327028093260285EC2E
:101CB00090E0909333028093320284EC90E0909312
:101CC00035028093340280EC90E090933702809349
:101CD000360281EC90E0909339028093380282ECD6
:101CE00090E090933B0280933A0286EC90E09093D0
:101CF0003D0280933C0210923F02109240021092EB
:101D00004102109242028091E702A7E0B3E09FEF08
:101D100048EB5BE08C3078F48C93282F30E0F901AD
:101D2000EE0FFF1F2E0F3F1FF901ED53FD4F5283A2
:101D300041838F5F01C09C93139623E0AF31B207BC
:101D400049F78093E7020091070110910801C091C3
:101D50000501D09106011092EB021092EA0288EE82
:101D600093E0A0E0B0E08093EC029093ED02A093AA
:101D7000EE02B093EF028FE291E09093E90280933C
:101D8000E8021092FF021092FE02109201031092DC
:101D900000031092030310920203109205031092A5
:101DA0000403609106036E7F6D7F60930603669562
:101DB000617081E06827802F0E94FE0461E0802F1F
:101DC0000E942D051127F801E155FF4FE491E093A2
:101DD000F802F801E556FF4FE491F0E0EE0FFF1F27
:101DE000EF56FF4F859194919093FA028093F902F8
:101DF00060E08C2F0E942D058091060381FD04C0B8
:101E000061E08C2F0E94FE04C093F402DD27FE01E6
:101E1000E155FF4FE491E093F502FE01E556FF4FD7
:101E2000E491F0E0EE0FFF1FE957FF4F8591949189
:101E30009093F7028093F602DF91CF911F910F915B
:101E400008950E94630F08F481E00895E89409C0A2
:101E500097FB3EF490958095709561957F4F8F4FDD
:101E60009F4F9923A9F0F92F96E9BB279395F695F3
:101E7000879577956795B795F111F8CFFAF4BB0F71
:101E800011F460FF1BC06F5F7F4F8F4F9F4F16C0D5
:101E9000882311F096E911C0772321F09EE8872F5F
:101EA000762F05C0662371F096E8862F70E060E01B
:101EB0002AF09A95660F771F881FDAF7880F969594
:101EC000879597F90895990F0008550FAA0BE0E838
:101ED000FEEF16161706E807F907C0F012161306EC
:101EE000E407F50798F0621B730B840B950B39F42C
:101EF0000A2661F0232B242B252B21F408950A2692
:101F000009F4A140A6958FEF811D811D08950E94BF
:101F10009A0F0C940B100E94FD0F38F00E940410D1
:101F200020F0952311F00C94F40F0C94FA0F112467
:101F30000C943F100E941C1070F3959FC1F3950FF5
:101F400050E0551F629FF001729FBB27F00DB11D3D
:101F5000639FAA27F00DB11DAA1F649F6627B00DCD
:101F6000A11D661F829F2227B00DA11D621F739FB6
:101F7000B00DA11D621F839FA00D611D221F749FC4
:101F80003327A00D611D231F849F600D211D822F0B
:101F9000762F6A2F11249F5750409AF0F1F0882332
:101FA0004AF0EE0FFF1FBB1F661F771F881F91505F
:101FB0005040A9F79E3F510580F00C94F40F0C940B
:101FC0003F105F3FE4F3983ED4F38695779567958D
:101FD000B795F795E7959F5FC1F7FE2B880F911D89
:101FE0009695879597F9089597F99F6780E870E02F
:101FF00060E008959FEF80EC089500240A9416167F
:10200000170618060906089500240A9412161306E6
:10201000140605060895092E0394000C11F4882374
:1020200052F0BB0F40F4BF2B11F460FF04C06F5F90
:102030007F4F8F4F9F4F089557FD9058440F551F66
:1020400059F05F3F71F04795880F97FB991F61F03A
:102050009F3F79F087950895121613061406551FB1
:10206000F2CF4695F1DF08C0161617061806991F1D
:10207000F1CF86957105610508940895E894BB2712
:1020800066277727CB0197F90895052E97FB1EF455
:1020900000940E945C1057FD07D00E94641007FC5A
:1020A00003D04EF40C945C105095409530952195DA
:1020B0003F4F4F4F5F4F0895909580957095619574
:1020C0007F4F8F4F9F4F0895A1E21A2EAA1BBB1B73
:1020D000FD010DC0AA1FBB1FEE1FFF1FA217B307F4
:1020E000E407F50720F0A21BB30BE40BF50B661F0A
:1020F000771F881F991F1A9469F7609570958095CE
:1021000090959B01AC01BD01CF010895A29FB00144
:10211000B39FC001A39F700D811D1124911DB29F1B
:10212000700D811D1124911D08950E94A9100C9419
:102130000B100E94041058F00E94FD0F40F029F48B
:102140005F3F29F00C94F40F51110C943F100C9444
:10215000FA0F0E941C1068F39923B1F3552391F3F1
:10216000951B550BBB27AA2762177307840738F006
:102170009F5F5F4F220F331F441FAA1FA9F335D063
:102180000E2E3AF0E0E832D091505040E695001C17
:10219000CAF72BD0FE2F29D0660F771F881FBB1FD1
:1021A000261737074807AB07B0E809F0BB0B802DAF
:1021B000BF01FF2793585F4F3AF09E3F510578F0DB
:1021C0000C94F40F0C943F105F3FE4F3983ED4F36B
:1021D000869577956795B795F7959F5FC9F7880FAF
:1021E000911D9695879597F90895E1E0660F771F01
:1021F000881FBB1F621773078407BA0720F0621B92
:10220000730B840BBA0BEE1F88F7E095089597FBCC
:10221000072E16F4009407D077FD09D00E942211F2
:1022200007FC05D03EF4909581959F4F08957095D9
:1022300061957F4F08950E948610B7FF0895821B15
:10224000930B0895AA1BBB1B51E107C0AA1FBB1F1C
:10225000A617B70710F0A61BB70B881F991F5A9532
:10226000A9F780959095BC01CD010895EE0FFF1F51
:102270000590F491E02D099481E090E0F8940C949D
:10228000411110E0C3E6D0E004C0FE010E94361107
:0C2290002196C436D107C9F7F894FFCF9F
:10229C00FF0C000D00040002000000000000000014
:1022AC000000000000000000000000000021018E72
:1022BC0000B8006E01E900C700DB0000000000B3AD
:1022CC00018E003D02B20103021B029A010D0A00AD
:00000001FF
